:020000040800F2
:10000000B8280020C57C0008097A00080B7A00088F
:100010000D7A00080F7A0008117A0008000000002D
:10002000000000000000000000000000EF6A00086F
:10003000137A000800000000A96A0008CD630008D8
:100040003D7D0008417D0008457D0008497D000890
:100050004D7D0008517D0008557D0008597D000840
:100060005D7D0008617D0008657D0008697D0008F0
:100070006D7D0008717D0008157A00081F7A000860
:10008000757D0008797D00087D7D0008817D000870
:10009000297A0008857D0008337A0008897D0008E8
:1000A0008D7D0008917D0008957D0008997D0008F0
:1000B0009D7D0008A17D00083D7A0008A57D00080F
:1000C000A97D0008AD7D0008B17D0008B57D000860
:1000D000B97D0008477A0008BD7D0008C17D000891
:1000E000C57D0008C97D0008CD7D000880B501F000
:1000F000AFF800F02FF800F0E1F800F0C2F800F0DF
:1001000060F800F0A2F8DFF8200B01F0B3F801F07E
:10011000C5F8DFF8182B00210FF26D5001F0FDF843
:10012000DFF80C1B0860DFF80C2B00210FF61530F0
:1001300001F0F3F8DFF8001B0860DFF8002B002166
:100140000FF6215001F0E9F8DFF8D81C086001F043
:10015000C3F8FEE700B58FB005A8282101F09AF991
:100160006846142101F096F9092005905FF480306B
:100170000690002107910121099101210B91022193
:100180000C910D905FF4C0100E9005A801F0C2F91B
:10019000002801D001F05AF80F20009002200190B1
:1001A000002002904FF48060039000200490022110
:1001B000684601F0AFFB002801D001F047F80FB00E
:1001C00000BD10B58AB0DFF8784ADFF85C0C20601B
:1001D000182060605FF04040A0605FF08070E060D9
:1001E0005FF4402020615FF4801060610020207681
:1001F000012060760120A0760020E07600202077A4
:1002000000206077200001F0C3FC002801D001F03D
:100210001DF8002005900020069000200790002087
:100220000090002001900020029000200390002008
:100230000490012008906946200001F05FFD00282D
:1002400001D001F003F80AB010BD80B5DFF8DC0B77
:10025000DFF8DC1B01605FF4E13141600021816067
:100260000021C160002101610C21416100218161F7
:100270000021C16102F08EF8002801D000F0E6FFF5
:1002800001BD80B5DFF8AC0B016851F001010160E0
:10029000006810F0010000900098002205210E2057
:1002A00002F08BFD0E2002F09DFD002205210F20A3
:1002B00002F083FD0F2002F095FD01BD78B585B0F9
:1002C0006846102101F0E6F8DFF86C0B016851F088
:1002D00010010160016811F0100104910499016896
:1002E00051F020010160016811F02001049104998E
:1002F000016851F004010160016811F004010491EA
:100300000499016851F008010160006810F00800CC
:1003100004900498DFF8246B00224FF40051300061
:1003200002F08CFEDFF8184B00224FF4E071200041
:1003300002F084FEDFF8385E00224EF613412800FA
:1003400002F07CFE4FF4005000900120019000204C
:100350000290022003906946300002F055FD3F20D4
:10036000009000200190022002906946200002F0D7
:100370004BFD4FF4E07000900120019000200290AE
:10038000022003906946200002F03EFD4EF2030079
:1003900000901120019000200290022003906946F5
:1003A000280002F031FD4FF44160009001200190DF
:1003B00000200290022003906946280002F024FDEC
:1003C0004FF4004000900020019000200290694608
:1003D000200002F019FD06B070BD2DE9F0410400C7
:1003E000DFF8606A0C27DFF8605ADFF8608A287847
:1003F000784308EB000332000021200001F0E4FD07
:10040000002817D14FF40041DFF87C0D02F023FEE5
:10041000287807FB00F708EB07003168816028782F
:10042000401C28702878102802DB0020287001E08A
:1004300028782870BDE8F08170472DE9F047040066
:10044000200001F0A5FF050001224FF40051DFF864
:10045000EC0902F0F3FD0F260027DFF8F489DFF83E
:10046000F49998F800100F20414309EB010A3A0073
:100470003100504602F01CFE2A00DFF8DC1998F823
:1004800000300F20434309EB030002F061FE98F8AF
:1004900000100F20414309EB010000F0EBFE98F83B
:1004A0000000401C88F8000098F80000102803DBCA
:1004B000002088F8000003E098F8000088F80000A9
:1004C000DFF8C80C0168491C0160BDE8F08738B549
:1004D0000400DFF8580984421CD1DFF880190A783B
:1004E000521C0A700A78102A02DB00220A7001E00E
:1004F0000A780A700F22DFF868390D780F214D4312
:1005000003EB050101F0CEFF4FF40051DFF8780C4A
:1005100002F0A1FD31BD70B50400DFF8100984427E
:100520001CD1DFF86C5C2978DFF82429127891421D
:1005300014D00F22DFF85C3C2E780F214E4303EBE2
:10054000060101F064FF2878401C287028781028E4
:1005500002DB0020287001E02878287070BDF8B513
:100560000400DFF8C808844240F08C8002F01EF9D5
:100570000500E80718D5DFF8D868DFF81C2C0F2134
:10058000DFF8103C37780F20474303EB070002F0F9
:10059000FFFD3078401C30703078102802DB0020DE
:1005A000307001E030783070A80718D5DFF8A06807
:1005B000DFF8E82B0F21DFF8DC3B37780F204743CB
:1005C00003EB070002F0E4FD3078401C3070307817
:1005D000102802DB0020307001E0307830706807AE
:1005E00018D5DFF86C68DFF8B82B0F21DFF8A43BD3
:1005F00037780F20474303EB070002F0C9FD30783E
:10060000401C30703078102802DB0020307001E090
:1006100030783070280718D5DFF83468DFF8842B7D
:100620000F21DFF8703B37780F20474303EB0700BB
:1006300002F0AEFD3078401C30703078102802DBBC
:100640000020307001E030783070E80618D5DFF80F
:100650000068DFF8542B0F21DFF8383B37780F2084
:10066000474303EB070002F093FD3078401C3070E5
:100670003078102802DB0020307001E030783070D4
:1006800000206064F1BD0000F0B591B00400DFF817
:100690001C0B0088ADF80400DFF8140B0088ADF8DF
:1006A0000200DFF8100B0088ADF80000DFF8080B3F
:1006B0000088ADF82A00DFF8040B0088ADF82800A8
:1006C000DFF8FC0A0088ADF82600DFF8F80A008899
:1006D000ADF82400DFF8F00A0088ADF82200DFF85A
:1006E000EC0A0088ADF82000DFF8E40A0088ADF8D5
:1006F0001E00DFF8E00A0088ADF81C00DFF8D80A19
:100700000088ADF81A00DFF8D40A0088ADF81800A8
:10071000DFF8CC0A0088ADF81600DFF8C80A0088B8
:10072000ADF81400DFF8C00A0088ADF81200DFF859
:10073000BC0A0088ADF81000DFF8B40A0088ADF8F4
:100740000E00DFF8B00A0088ADF80C00DFF8A80A48
:100750000088ADF80A00DFF8A40A0088ADF80800A8
:10076000DFF89C0A0088ADF80600DFF8D4660122A5
:100770004021300002F062FC00228021300002F0B3
:100780005DFCDFF8EC7900224FF48061380002F064
:1007900055FC00224FF40061380002F04FFC0220AB
:1007A00000F03EFE0121300002F03DFC8DF82C00EF
:1007B0000BAD0221300002F036FC2871042130001C
:1007C00002F031FC28720821300002F02CFC287362
:1007D0001021300002F027FC28742021300002F0A4
:1007E00022FC2875022000F01BFE00224021300070
:1007F00002F024FC01228021300002F01FFC0022C4
:100800004FF48061380002F019FC00224FF40061BF
:10081000380002F013FC022000F002FE012130003B
:1008200002F001FC68700221300002F0FCFB6871EC
:100830000421300002F0F7FB68720821300002F05A
:10084000F2FB68731021300002F0EDFB6874202188
:10085000300002F0E8FB8DF84100022000F0E0FDDE
:1008600000224021300002F0E9FB0022802130000C
:1008700002F0E4FB01224FF48061380002F0DEFB5D
:1008800000224FF40061380002F0D8FB022000F093
:10089000C7FD0121300002F0C6FBA8700221300024
:1008A00002F0C1FBA8710421300002F0BCFBA87269
:1008B0000821300002F0B7FBA8731021300002F0CD
:1008C000B2FBA8742021300002F0ADFBA875022015
:1008D00000F0A6FD00224021300002F0AFFB002214
:1008E0008021300002F0AAFB00224FF48061380022
:1008F00002F0A4FB01224FF40061380002F09EFBDD
:10090000022000F08DFD0121300002F08CFBE87028
:100910000221300002F087FBE8710421300002F070
:1009200082FBE8720821300002F07DFBE8731021A1
:10093000300002F078FBE8742021300002F073FBF5
:100940008DF843009DF804008DF805009DF82C00FB
:100950008DF804009DF802008DF8030068788DF88A
:1009600002009DF800008DF8010028798DF8000044
:100970009DF82A008DF82B0068798DF82A009DF8E3
:1009800028008DF82900287A8DF828009DF8260087
:100990008DF82700687A8DF826009DF824008DF8E0
:1009A0002500287B8DF824009DF822008DF8230077
:1009B000687B8DF822009DF820008DF82100287CAE
:1009C0008DF820009DF81E008DF81F00687C8DF8C2
:1009D0001E009DF81C008DF81D00287D8DF81C0060
:1009E0009DF81A008DF81B00A8788DF81A009DF864
:1009F00018008DF81900E8788DF818009DF8160099
:100A00008DF81700A8798DF816009DF814008DF860
:100A10001500E8798DF814009DF812008DF8130088
:100A2000A87A8DF812009DF810008DF81100E87A70
:100A30008DF810009DF80E008DF80F00A87B8DF842
:100A40000E009DF80C008DF80D00E87B8DF80C0071
:100A50009DF80A008DF80B00A87C8DF80A009DF81F
:100A600008008DF80900E87C8DF808009DF8060064
:100A70008DF80700A87D8DF806009DF80500012877
:100A800041D19DF8040001283DD1DFF87807DFF857
:100A900078170C22037853430B444FF423759D6061
:100AA000037853430B440025DD71037853430B4413
:100AB00000259D71037853430B4400255D71037835
:100AC00053430B4400251D71037853430B44002509
:100AD000DD70037853430B4400259D700378534326
:100AE0000B4400255D708023057802FB05F28B54D2
:100AF0000178491C01700178102902DB0021017086
:100B000001E0017801709DF80300012841D19DF8B2
:100B1000020001283DD1DFF8EC06DFF8EC160C22CC
:100B2000037853430B444FF423759D60037853437C
:100B30000B440025DD71037853430B4400259D7160
:100B4000037853430B4400255D71037853430B44F2
:100B500000251D71037853430B440025DD70037895
:100B600053430B4400259D70037853430B440025E9
:100B70005D704023057802FB05F28B540178491C17
:100B800001700178102902DB0021017001E0017879
:100B900001709DF80100012841D19DF80000012855
:100BA0003DD1DFF86006DFF860160C22037853436E
:100BB0000B444FF423759D60037853430B44002589
:100BC000DD71037853430B4400259D710378534333
:100BD0000B4400255D71037853430B4400251D71C0
:100BE000037853430B440025DD70037853430B44D3
:100BF00000259D70037853430B4400255D7040230E
:100C0000057802FB05F28B540178491C01700178CC
:100C1000102902DB0021017001E0017801706420DD
:100C200000F0FEFBA1E50000347C00081C7B0008FE
:100C30003C200020407B000840200020647B00080E
:100C4000281F00202DE9F14F814CDFF8C0250F212E
:100C5000804B25780F20454303EB050002F098FAFE
:100C60002078401C20702078102802DB00202070A3
:100C700001E020782070DFF8985540F27930286044
:100C8000002068600020E8600020A860082028613B
:100C9000002028755FF0000BDFF86C6502203070D3
:100CA000032070705520B070AA20F07004203071BD
:100CB000052070715520B071AA20F071DFF85475CD
:100CC000380001F0A4F848F60241380001F034FA87
:100CD0004FF4FA6000F0A4FBDFF828055FF00C0881
:100CE000017808FB01F1314401228A60017808FB98
:100CF00001F131440022CA71017808FB01F131444D
:100D000000228A71017808FB01F1314400224A7106
:100D1000017808FB01F1314400220A71017808FBD7
:100D200001F131440022CA70017808FB01F131441D
:100D300000228A70017808FB01F1314400224A70D8
:100D4000F821027808FB02F2B1540178491C0170C5
:100D50000178102902DB0021017001E001780170A7
:100D60005FF00009DFF8B0A49AF800100078814223
:100D700051D09AF8000008FB00F0304480682860E9
:100D8000380001F005F90028FAD0DFF890349AF81D
:100D9000000008FB00F006EB00022900380001F01B
:100DA00064F800281DD0DFF8ACB0DFF874240F2100
:100DB00023780F2043430BEB030002F0E9F921787D
:100DC0000F2041430BEB010000F054FA2078401C47
:100DD00020702078102802DB0020207001E02078AD
:100DE00020709AF8000008FB00F806EB0800806805
:100DF00000F040FA9AF80000401C8AF800009AF8C7
:100E00000000102803DB00208AF8000003E09AF8B5
:100E100000008AF800000A2000F002FBCB461BF11C
:100E2000010B59E74420002000640040D01D002041
:100E30000038014014100240181002400010014018
:100E400000080140501F0020AF200020481A002059
:100E5000AB20002098180020F87C0008A920002072
:100E6000A81700202DE9F84388B00400DFF8B45338
:100E7000DFF8B463DFF8B4730F2231780F204143F9
:100E80003944280001F00EFBDFF8A48398F8000035
:100E9000E8490978884267D0DFF89C930C20E7493D
:100EA00098F8002042438A5C079298F80020424359
:100EB0000A445278069298F8002042430A449278F5
:100EC000059298F8002042430A44D278049298F898
:100ED000002042430A441279039298F800204243CA
:100EE0000A445279029298F8002042430A449279C7
:100EF000019298F8002042430A44D279009298F86F
:100F0000002000FB02F008448368CD4A0F21DFF87F
:100F100084C299F800E00F2000FB0EFE0CEB0E00DF
:100F200002F036F999F80000401C89F8000099F8A1
:100F30000000102803DB002089F8000003E099F886
:100F4000000089F8000098F80000401C88F80000B4
:100F500098F80000102803DB002088F8000003E068
:100F600098F8000088F80000DFF8248298F8000064
:100F7000B149097888421AD00F22864998F8003082
:100F80000F2043431944280001F041FA98F800006B
:100F9000401C88F8000098F80000102803DB0020AF
:100FA00088F8000003E098F8000088F80000A549E0
:100FB00008783278904200F0D6800A780F204243B9
:100FC000B85C432840F0C4800A780F20424307EB06
:100FD00002004078682840F0BB800A780F20424326
:100FE00007EB02008078322840F0B2800A780F20A8
:100FF000424307EB0200C078332840F0A9800A780A
:101000000F20424307EB02000079322840F0A08015
:101010007C4A7D4B5FF00C0C10780CFB00F003EB6E
:10102000000E91F800800F2000FB08F807EB080085
:1010300090F8058091F800900F2000FB09F907EB6C
:101040000900807950EA0820CEF8080010780CFBDF
:1010500000F003EB000E91F800800F2000FB08F871
:1010600007EB0800C0798EF8070010780CFB00F041
:1010700003EB000E91F800800F2000FB08F807EB4F
:101080000800007A8EF8060010780CFB00F003EBE5
:10109000000E91F800800F2000FB08F807EB080015
:1010A000407A8EF8050010780CFB00F003EB000E80
:1010B00091F800800F2000FB08F807EB0800807A09
:1010C0008EF8040010780CFB00F003EB000E91F892
:1010D00000800F2000FB08F807EB0800C07A8EF8AC
:1010E000030010780CFB00F003EB000E91F8008079
:1010F0000F2000FB08F807EB0800007B8EF80200C9
:1011000010780CFB00F003EB000E91F800800F202C
:1011100000FB08F807EB0800407B8EF8010091F80F
:1011200000E00F2000FB0EFE07EB0E00807B92F824
:1011300000E00CFB0EFC03F80C001078401C107053
:101140001078102802DB0020107001E01078107079
:101150000878401C08700878102802DB002008700E
:1011600001E008780870642000F05AF98CE600006D
:10117000000C014010B5040020683349884201D1B9
:1011800002F028F810BD0000000C014038200020BB
:10119000AA20002098180020207C0008447C000829
:1011A000547C0008647C0008747C000862510008CC
:1011B0003A54000852540008CA540008F65800086F
:1011C0009E5900083E5A00086E5A0008AA5B0008A3
:1011D000E65B00080A5C0008EE5C0008365F000869
:1011E0007A5F000892620008366900083A690008D0
:1011F000A66A0008C6760008067A0008CE7B0008BA
:10120000DE7B0008AD20002088190020847C0008C7
:101210006C1F0020281F0020AC200020342000205C
:10122000947C0008D01D0020A9200020A8170020D1
:10123000AE200020AF200020AB200020481A002064
:10124000E07B0008A82000200008004072B6FEE7FE
:1012500080B50748016851F010010160032001F0DA
:10126000A6FD0F2001F0C2FF02F028F8002002BD09
:10127000002002400EB4C0B5024603A80021019030
:10128000009101AB0121044878440C3002F008F9C8
:1012900006BC5DF810FB00BF65690000EFF3058038
:1012A00000280CD1EFF31080002808D1DFF8AC1132
:1012B0000868022806D1EFF31180002802D07FF0E1
:1012C000050008E00868002803D10120086000201C
:1012D00001E05FF0FF30704780B5EFF30580002834
:1012E0000CD1EFF31080002808D1DFF870110868E6
:1012F000022806D1EFF31180002802D07FF005000C
:101300000AE00868012805D10220086003F059F9B5
:10131000002001E05FF0FF3002BD2DE9F84785B005
:1013200007008846140000200490EFF30580002891
:1013300072D1EFF3108000286ED1DFF82001006831
:10134000022803D1EFF31180002865D1380000286E
:1013500062D0802082461820050000208DF80C0005
:1013600003A881465FF0FF300600002C33D02068D0
:10137000002801D020688146A069002801D0A0691A
:101380000500002D04D0392D02D22079C00701D5E7
:10139000002042E06069002802D06069800882462F
:1013A000A06800280BD0E0685C2808D320690028DA
:1013B00005D06069002802D0012006000DE0A06879
:1013C00000280AD1E068002807D12069002804D14C
:1013D0000020060001E000200600012E0CD1A068CC
:1013E00002902069019000954346524649463800D4
:1013F00002F076FF04900FE0002E0DD104A80190BA
:1014000000954346524692B24946380002F0B6FF74
:10141000012801D000200490049806B0BDE8F087B0
:1014200038B50400EFF3058000280CD1EFF31080ED
:10143000002808D1DFF828000068022806D1EFF361
:101440001180002802D07FF0050505E00025002C62
:1014500002D0200003F08EF8280032BD20200020AA
:1014600020200020074B0360074B0B608023136094
:101470007047064B0360064B0B604FF4807313609C
:1014800070470000281C0020A8150020841C0020A4
:10149000A8110020002203F053BCF0B402461068EB
:1014A00095681318506803EB5004C0071DD54D44D0
:1014B0001BE013F8017B05F8017B491EF9D1A0B1AF
:1014C000B60813F8011B06F00306032E08BF13F835
:1014D000016B01EB06214942801C294405D011F81B
:1014E000016B05F8016B401EF9D1A3420ED013F831
:1014F000016B16F0030104BF13F8011BC91C30096E
:101500000F28DAD113F8010B0F30D6E7F0BC02F147
:101510000C0070472DE9FC470400002C01D101208C
:10152000F6E12078C0076BD5DFF82006016811F0DE
:101530000C01042907D0016811F00C0108290CD115
:101540000068C00309D5DFF800060068800357D59E
:101550006068002854D10120DAE16068B0F5803F6E
:1015600006D1DFF8E405016851F48031016026E01E
:10157000606800280AD1DFF8D005016831F48031B5
:101580000160016831F48021016018E06068B0F505
:10159000A02F0AD1DFF8B005016851F48021016065
:1015A000016851F48031016009E0DFF89C050168B1
:1015B00031F480310160016831F48021016060689C
:1015C00000280ED003F0DAFB0500DFF87C05006888
:1015D000800315D403F0D2FB401B6528F5D303200C
:1015E00096E103F0CBFB0500DFF85C0500688003A3
:1015F00006D503F0C3FB401B6528F5D3032087E124
:101600002078800750D5DFF84405016811F00C0FF1
:1016100007D0016811F00C01082914D10068C0033B
:1016200011D4DFF824050168890704D5216901294F
:1016300001D001206CE1016831F0F801626951EAE2
:10164000C201016030E0206900281AD00120DFF8D3
:101650001015086003F092FB0500DFF8EC04016848
:10166000890706D403F08AFB401B0328F5D3032027
:101670004EE1016831F0F801626951EAC20101608E
:1016800012E00020DFF8D814086003F077FB0500B3
:10169000DFF8B4040068800706D503F06FFB401B39
:1016A0000328F5D3032033E1207800072CD5A06967
:1016B000002816D00120DFF8AC14086003F05EFBB0
:1016C0000500DFF898040068800706D403F056FB95
:1016D000401B0328F5D303201AE1012000F021FA72
:1016E00012E00020DFF87C14086003F047FB0500DF
:1016F000DFF868040068800706D503F03FFB401B55
:101700000328F5D3032003E12078400740F18E80C1
:101710000027DFF85484D8F80000C0000DD4D8F8B2
:10172000000050F08050C8F80000D8F8000010F019
:1017300080500090009801200700DFF83094D9F81D
:101740000000C00513D4D9F8000050F48070C9F827
:10175000000003F013FB0500D9F80000C00506D413
:1017600003F00CFB401B6528F6D30320D0E0E068B3
:10177000012806D1DFF8F803016851F0010101608A
:1017800025E0E06800280AD1DFF8E4030168490891
:1017900049000160016831F00401016017E0E06870
:1017A00005280AD1DFF8C803016851F0040101607F
:1017B000016851F00101016009E0DFF8B40301683C
:1017C000490849000160016831F004010160E068E6
:1017D000002810D003F0D2FA0500DFF89403006867
:1017E000800719D403F0CAFA401B41F289318842BC
:1017F000F3D303208CE003F0C1FA0500DFF8700397
:101800000068800708D503F0B9FA401B41F289311E
:101810008842F3D303207BE03800C0B2012805D111
:10182000D8F8000030F08050C8F80000E0690028C7
:101830006DD0DFF81883D8F8000010F00C000828ED
:1018400051D0E06902283BD1DFF828A30020CAF874
:10185000000003F093FA0700DFF8EC92D9F80000DB
:10186000800106D503F08AFAC01B0328F4D30320B5
:101870004EE0206AB0F5803F07D1D8F8001031F46F
:101880000031A0680143C8F80010D8F8001031F406
:101890007411206A0143606A0143C8F800100120F6
:1018A000CAF8000003F06AFA0500D9F800008001C8
:1018B0002DD403F063FA401B0328F6D3032027E05E
:1018C0000020DFF8B012086003F058FA0500DFF8D6
:1018D0007802006880011AD503F050FA401B0328F3
:1018E000F5D3032014E0E069012801D101200FE0C5
:1018F000D8F80000060016F48030216A884204D12E
:1019000016F47010616A884201D0012000E00020C6
:10191000BDE8F6872DE9F04104000D00002C01D14F
:1019200001209BE0DFF85072386810F00700A842F1
:101930000BD23868C008C00028433860386810F0FF
:101940000700A84201D0012088E02078800716D542
:101950002078400704D57D48016851F4E0610160BA
:101960002078000704D57948016851F4605101607E
:1019700076490A6832F0F002A06802430A602078D3
:10198000C00735D56068012805D16F48006880031D
:1019900010D4012062E06068022805D16A4800681E
:1019A000800107D4012059E067480068800701D40E
:1019B000012053E0DFF89481D8F8001089088900ED
:1019C00060680143C8F8001003F0D8F90600D8F8A1
:1019D000000010F00C006168B0EB810F08D003F03C
:1019E000CDF9801B41F289318842F0D3032035E0E4
:1019F000386810F0070085420BD23868C008C00074
:101A000028433860386810F00700A84201D0012050
:101A100024E02078400706D54C490A6832F4E06299
:101A2000E06802430A602078000707D5474801684C
:101A300031F46051226951EAC201016000F010F8EE
:101A40004E49424A1268C2F30312895CC8404149B8
:101A500008604148006801F0C9FB0020BDE8F08142
:101A6000F0B400200021002200230025374E346806
:101A700014F00C07042F02D0082F02D01BE03448CA
:101A80001AE03F48C4F38347C05D0300E0030CD570
:101A90003C483668C6F34046805D01002C4800FB98
:101AA00003F0B0FBF1F0020003E0374800FB03F065
:101AB0000200100000E02648F0BC7047254800688E
:101AC000704780B5FFF7FAFF3049204A1268C2F329
:101AD0000222895CC84002BD80B5FFF7EFFF2B49A9
:101AE0001A4A1268C2F3C222895CC84002BD0F22A2
:101AF0000260164A136813F003034360136813F07F
:101B0000F0038360136813F4E063C3601268D208C3
:101B100012F4E0620261184A126812F007020A60C9
:101B2000704781B00B490968C9084FF47A72B1FB5C
:101B3000F2F101FB00F1009100BF00994A1E0092F2
:101B40000029F9D101B07047001002400410024092
:101B500000127A0008000020040000202410024037
:101B600000004242800442421C10024000700040CB
:101B7000201002406000424200200240B47C000875
:101B8000A47C0008127C000800093D00107D0008BC
:101B900070B50400002C01D10120AEE094F82000C3
:101BA000002802D1200001F0ACFB2068006850F052
:101BB00001002168086003F0E1F805002068406832
:101BC000C0070DD403F0DAF8401B0B28F6D3606A87
:101BD00050F400306062052084F8200001208CE081
:101BE0002068006830F002002168086003F0C6F841
:101BF00006002068406880070DD503F0BFF8801B01
:101C00000B28F6D3606A50F400306062052084F837
:101C10002000012071E0207E012806D120680068A4
:101C200050F080002168086005E02068006830F00E
:101C3000800021680860607E012806D12068006865
:101C400050F040002168086005E02068006830F02E
:101C5000400021680860A07E012806D12068006845
:101C600050F020002168086005E02068006830F02E
:101C7000200021680860E07E012806D12068006805
:101C800030F010002168086005E02068006850F01E
:101C9000100021680860207F012806D120680068B4
:101CA00050F008002168086005E02068006830F006
:101CB000080021680860607F012806D1206800685C
:101CC00050F004002168086005E02068006830F0EA
:101CD000040021680860A168E068014320690143AD
:101CE000606901436068401E01432068C1610020B3
:101CF0006062012084F82000002070BDF0B4020072
:101D0000136892F820402000C0B2012803D02000C0
:101D1000C0B2022874D1D3F8000250F00100C3F819
:101D2000000201200D7D15F01F0510FA05F5D3F80E
:101D30001C02A843C3F81C02C869002818D1D3F8B4
:101D40000C02A843C3F80C02486903EBC000CE683C
:101D50004F68BFB257EA0647C0F84072486903EBC4
:101D6000C0008E680F68BFB257EA0647C0F84472D9
:101D7000C869012818D1D3F80C022843C3F80C0213
:101D8000486903EBC0000E684F68BFB257EA0647C8
:101D9000C0F84072486903EBC0008E68CF68BFB2DC
:101DA00057EA0647C0F844728869002805D1D3F87D
:101DB0000402A843C3F8040204E0D3F80402284351
:101DC000C3F804020869002805D1D3F81402A84317
:101DD000C3F8140204E0D3F814022843C3F8140231
:101DE000086A012804D1D3F81C022843C3F81C0256
:101DF000D3F8000240084000C3F80002002004E0CD
:101E0000506A50F4802050620120F0BC704738B511
:101E1000040094F82000012821D1022084F8200039
:101E200020680068400840002168086002F0A6FFB2
:101E3000050020684068C0070DD502F09FFF401BD9
:101E40000B28F6D3606A50F400306062052084F8F5
:101E50002000012008E000206062002004E0606AA9
:101E600050F400206062012032BDF0B5040094F807
:101E700020502068866888680028FFD02800C0B2FB
:101E8000012803D02800C0B202287BD116F0E05F01
:101E900072D0C6F301670120B84018608868002836
:101EA0000BD10868D1F80CC05CEA405C20685FEA9E
:101EB000071E7044C0F880C10DE04868D1F808C022
:101EC0005CEAC00CC86850EA0C0C20685FEA071E88
:101ED0007044C0F880C10869D4F800C05FEA071EEA
:101EE000F444CCF88401087D01280ED120685FEA13
:101EF000071C6044D0F8840150F48070D4F800C00E
:101F00005FEA071EF444CCF88401D07992F806C049
:101F10005FEA0C4C5CEA006C50795CEA002C1079AA
:101F200050EA0C0C20685FEA071E7044C0F88CC1B0
:101F3000D07892F802C05FEA0C4C5CEA006C5078F2
:101F40005CEA002C107850EA0C0C20685FEA071E4F
:101F50007044C0F888C120685FEA071C6044D0F86C
:101F6000800150F00100D4F800C05FEA071EF4447D
:101F7000CCF8800100200AE0606A50F40010606232
:101F8000012004E0606A50F4802060620120F0BD0E
:101F90000100002091F820201300DBB2012B03D0B8
:101FA0001300DBB2022B0ED10B689B685B0100D5DE
:101FB000401C0B689B681B0100D5401C0B689B688C
:101FC000DB0000D5401C704770B4040094F820502A
:101FD0002800C0B2012804D02800C0B2022840F076
:101FE000A48000290AD12068C06810F0030F10D126
:101FF000606A50F40010606201209BE02068006974
:1020000010F0030F05D1606A50F4001060620120E7
:1020100090E020680E013044D0F8B00110F00400C8
:1020200090609068002807D120680E013044D0F8F5
:10203000B001400D106006E020680E013044D0F879
:10204000B001C008506020680E013044D0F8B001E3
:1020500010F00200D06020680E013044D0F8B401C6
:1020600010F00F00082802D30820106107E0206854
:102070000E013044D0F8B40110F00F001061206858
:102080000E013044D0F8B401C0F3072090612068FD
:102090000E013044D0F8B401000C506120680E01EC
:1020A0003044D0F8B801187020680E013044D0F8E0
:1020B000B801000A587020680E013044D0F8B80109
:1020C000000C987020680E013044D0F8B801000E62
:1020D000D87020680E013044D0F8BC011871206817
:1020E0000E013044D0F8BC01000A587120680E017E
:1020F0003044D0F8BC01000C987120680E013044C7
:10210000D0F8BC01000ED871002906D12068C06843
:1021100050F020002668F06005E02068006950F06B
:10212000200026683061002004E0606A50F48020BE
:102130006062012070BC704710B4020092F8203039
:102140001800C0B2012803D01800C0B2022806D17E
:1021500010684069084314686061002004E0506A18
:1021600050F480205062012010BC70472DE9F84FD8
:102170000500002428684669286847682868D0F860
:1021800008802868D0F80C902868D0F810A028683B
:10219000D0F818B0F00755D55FEAC87018D50120FF
:1021A000296888605FEA887003D52800FEF744F943
:1021B0000EE05FEA487002D554F4006408E05FEA7C
:1021C000087002D554F4805402E0280002F0DCFDCF
:1021D0005FEAC85019D54FF48070296888605FEABB
:1021E000885003D5280002F0D0FD0EE05FEA485089
:1021F00002D554F4005408E05FEA085002D554F4C4
:10220000804402E0280002F0C1FD5FEAC83019D521
:102210005FF48030296888605FEA883003D5280041
:1022200002F0B5FD0EE05FEA483002D554F40044F8
:1022300008E05FEA083002D554F4803402E0280058
:1022400002F0A6FD300707D55FEAC96004D554F453
:10225000007410202968C860700708D55FEA09700B
:1022600005D508202968C860280002F092FDB00753
:1022700007D52868C06810F0030F02D02800FEF7C9
:10228000ACF8700607D55FEACA6004D554F48064E0
:10229000102029680861B00608D55FEA0A7005D5E4
:1022A000082029680861280002F074FDF00607D5AF
:1022B0002868006910F0030F02D0280002F06BFDBF
:1022C000B00307D5F80605D5102029684860280016
:1022D00002F062FDF00307D5380705D5082029680C
:1022E0004860280002F059FD300447D5780742D5F0
:1022F000F00506D51BF00100C0B2002801D054F053
:102300000104B00504D55FEA8B7001D554F00204D6
:10231000700504D55FEA4B7001D554F00404300514
:1023200029D51BF0700F26D01BF0700010280AD0A2
:1023300020280BD030280CD040280DD050280ED0AB
:1023400060280FD011E054F008040EE054F010049F
:102350000BE054F0200408E054F0400405E054F091
:10236000800402E054F48074FFE72868806930F04C
:10237000700029688861042029684860002C05D015
:10238000686A204368622800FEF757F8BDE8F18FBD
:10239000406A704710B50400002C01D1012035E0DF
:1023A000A0690028FFD194F84100002805D1002041
:1023B00084F84000200000F0ECFF242084F8410065
:1023C0002068C06830F400502168C860200000F028
:1023D0001FFC2068006930F4904021680861206883
:1023E000406930F02A00216848612068C06850F4D4
:1023F00000502168C86000206064202084F84100FB
:10240000202084F8420000206063002010BD73B5D6
:102410000400150094F8410020283AD101980028C2
:1024200003D0280080B2002801D1012032E00198B9
:102430002062A584E58400206064212084F84100A6
:102440001548A16B88621548A16BC8621448A16B3E
:1024500008630020A16B486301AE2B009BB220688B
:10246000021D3168A06B02F0CEFC7FF040002168B5
:1024700008602068143050E8000F50F08000010020
:10248000206810F1140242E800100028F1D1002069
:1024900000E0022076BD0000B127000805280008F2
:1024A000E328000870B505000C00160095F84200FE
:1024B000202810D1002C03D0300080B2002801D198
:1024C000012009E000202863320092B22100280098
:1024D00000F033FA00E0022070BD2DE9FC47060051
:1024E000306807683068D0F80C803068D0F81490F5
:1024F0000020002517F00F04002C08D1B80606D5DF
:102500005FEA886003D5300000F007FB4CE1002C47
:1025100000F080805FEAC97002D418F4907F79D00F
:1025200017F00100C0B2002806D05FEAC85003D5FA
:10253000706C50F001007064780708D519F0010044
:10254000C0B2002803D0706C50F002007064B8076D
:1025500008D519F00100C0B2002803D0706C50F00B
:102560000400706438070BD55FEA886004D419F062
:102570000100C0B2002803D0706C50F008007064F5
:10258000706C002845D0B80605D55FEA886002D592
:10259000300000F0C2FA30684069800910F0010094
:1025A0000500706C000701D4002D2DD0300000F024
:1025B00031FA30684069400622D53068143050E85E
:1025C000000F30F040000100306810F1140242E8C2
:1025D00000100028F1D1F06B00280DD00FF29D40C3
:1025E000F16B4863F06B02F081FC002811D0F06BB6
:1025F000F16B496B88470CE03000FDF7B0FF08E055
:102600003000FDF7ACFF04E03000FDF7A8FF00202C
:102610007064C9E0306B012840F0B480F80640F1E6
:10262000B1805FEAC86040F1AD8000200090306862
:1026300000680090306840680090009830684069F9
:1026400040065CD5F06B0068D0F804A0504680B21C
:10265000002853D05046B18D80B288424ED2A6F8A1
:102660002EA0F06B806920283FD030680C3050E8F5
:10267000000F30F480700100306810F10C0242E865
:1026800000100028F1D13068143050E8000F4008E5
:1026900040000100306810F1140242E800100028E8
:1026A000F1D13068143050E8000F30F040000100E4
:1026B000306810F1140242E800100028F1D1202007
:1026C00086F842000020306330680C3050E8000F7C
:1026D00030F010000100306810F10C0242E80010E8
:1026E0000028F1D1F06B02F0DAFB02207063B18DAB
:1026F000F08D091A89B2300002F030FD54E0B08D3F
:10270000B6F82EA0B0EB0A0AF08D002839D050465A
:1027100080B2002835D030680C3050E8000F30F41B
:1027200090700100306810F10C0242E8001000289F
:10273000F1D13068143050E8000F4008400001002B
:10274000306810F1140242E800100028F1D1202076
:1027500086F842000020306330680C3050E8000FEB
:1027600030F010000100306810F10C0242E8001057
:102770000028F1D102207063514689B2300002F086
:10278000EDFC11E0380606D55FEA086003D530009D
:1027900000F080F908E0780606D55FEA486003D5C6
:1027A000300000F0AAF9FFE7BDE8F387406C7047FE
:1027B00038B50400656A2068006880061ED40020D1
:1027C000E8842868143050E8000F30F080000100E1
:1027D000286810F1140242E800100028F1D128689E
:1027E0000C3050E8000F50F040000100286810F154
:1027F0000C0242E800100028F1D102E02800FDF7A9
:102800008AFE31BD38B50400656A280002F0A7FCD5
:1028100031BD38B50400656A2068006880063FD481
:102820000020E88528680C3050E8000F30F48070F4
:102830000100286810F10C0242E800100028F1D1D4
:102840002868143050E8000F400840000100286854
:1028500010F1140242E800100028F1D12868143069
:1028600050E8000F30F040000100286810F1140219
:1028700042E800100028F1D1202085F84200286BA2
:1028800001280DD128680C3050E8000F30F01000FE
:102890000100286810F10C0242E800100028F1D174
:1028A00000206863286B012804D1A98D280002F05C
:1028B00055FC02E02800FDF70AFE31BD38B50400E2
:1028C000656A01206863286B012806D1A98D490833
:1028D00089B2280002F042FC02E0280002F040FC2D
:1028E00031BDF8B506000020776A39684C69E40903
:1028F00014F0010497F84110212906D1002C04D0CE
:102900000020F884380000F073F838684569AD0994
:1029100015F0010597F84200222806D1002D04D0B9
:102920000020F885380000F075F8786C50F0100041
:1029300078643800FDF713FEF1BD73B5040015008F
:102940000198A062A58500206064222084F84200DE
:10295000DFF89403E16B8862DFF89003E16BC862F3
:10296000DFF88C03E16B08630020E16B486301AE84
:102970002B009BB232682068011DE06B02F043FA25
:102980000020009020680068009020684068009057
:102990000098206900280DD020680C3050E8000F06
:1029A00050F480700100206810F10C0242E8001021
:1029B0000028F1D12068143050E8000F50F00100D9
:1029C0000100206810F1140242E800100028F1D143
:1029D0002068143050E8000F50F0400001002068DB
:1029E00010F1140242E800100028F1D1002076BD59
:1029F00001680C3151E8001F31F0C0010A00016884
:102A000011F10C0343E800210029F1D1202180F8C5
:102A10004110704701680C3151E8001F31F490718A
:102A20000A00016811F10C0343E800210029F1D1EB
:102A30000168143151E8001F490849000A00016883
:102A400011F1140343E800210029F1D1016B0129A0
:102A50000DD101680C3151E8001F31F010010A005E
:102A6000016811F10C0343E800210029F1D1202174
:102A700080F84210002101637047000038B504005F
:102A8000656A0020E8850020E8842800FDF767FDDE
:102A900031BD0000010091F8410021282BD1886848
:102AA000B0F5805F0DD1086900280AD1086A0200DC
:102AB0001088C005C00D0B685860086A801C086249
:102AC00005E0086A431C0B6200780B685860C88CEC
:102AD000401EC88480B200280BD10868C06830F05E
:102AE00080000B68D8600868C06850F040000B6830
:102AF000D860002000E00220704710B50400206874
:102B0000C06830F040002168C860202084F841008F
:102B10002000FDF700FD002010BD7CB5040094F8F6
:102B20004200222872D1A068B0F5805F0DD12069E3
:102B300000280AD10025A66A20684068C005C00D9B
:102B40003080A06A801CA06217E0A56A0026A068F9
:102B5000B0F5805F05D0A068002806D12069002864
:102B600003D120684068287004E02068406810F0B5
:102B70007F002870A06A401CA062E08D401EE085A6
:102B800080B2002840D12068C06830F02000216861
:102B9000C8602068C06830F480702168C860206810
:102BA00040694008400021684861202084F84200C4
:102BB00000206063206B012821D100202063206861
:102BC0000C3050E8000F30F010000100206810F1C8
:102BD0000C0242E800100028F1D120680068C0060D
:102BE00008D50020009020680068009020684068A8
:102BF00000900098A18D200002F0B0FA02E02000C1
:102C0000FDF765FC002002E0002000E0022076BD18
:102C1000F8B504002068016931F44051E0680143CF
:102C200020680161A5682069054360690543206843
:102C3000C1683048014029432068C160206841696B
:102C400031F44071A06901432068416120682A493C
:102C5000884202D1FEF740FF01E0FEF732FF642117
:102C6000192202FB00F36668B600B3FBF6F3642694
:102C7000B3FBF6F302FB00F66768BF00B6FBF7F69E
:102C800002FB00F7D4F804C05FEA8C0CB7FBFCF73A
:102C90005FF0640CB7FBFCF701FB176636013236B8
:102CA0006427B6FBF7F616F0F00616EB031602FBE8
:102CB00000F36768BF00B3FBF7F302FB00F267683D
:102CC000BF00B2FBF7F26427B2FBF7F201FB12314F
:102CD000090132316422B1FBF2F111F00F018E19BA
:102CE00021688E60F1BD000013280008BD2800088F
:102CF000E3280008F3E9FFFF0038014010B410F0AA
:102D000007033C4C22684FF6FF010A403A4951EA5A
:102D100003210A43226010BC704736480068C0F3A4
:102D200002207047010049B2002909D4012210F0A5
:102D30001F018A40314903005BB25B0941F823203F
:102D4000704710B4020052B2002A05D40A012C4B7D
:102D5000040064B21A5508E00A012A4B040064B268
:102D600014F00F04234403F8042C10BC704770B413
:102D7000030013F00704D4F10700052801D3042051
:102D800001E0D4F10700251D072D01D2002500E048
:102D9000E51E012616FA00F0401E0140A94016FA71
:102DA00005F56D1E2A401143080070BC704710B530
:102DB00004002000FFF7A2FF10BD2DE9F041040040
:102DC0000D0016000027FFF7A8FF804632002900FB
:102DD0004046FFF7CCFF0100200040B2FFF7B1FFF3
:102DE000BDE8F08110B50400200040B2FFF79AFF63
:102DF00010BD00000CED00E00000FA0500E100E06D
:102E000000E400E018ED00E02DE9F84703005FF072
:102E1000000E5FF00008086830FA0EF0002800F09D
:102E20000081012010FA0EF004000868204005001F
:102E3000A54240F0F3804868002831D0012820D016
:102E4000022825D003283CD011281DD0122823D0D9
:102E5000DFF81CC2604523D0DFF818C260451FD0E0
:102E6000DFF814C260451BD0DFF810C2604517D0F0
:102E7000DFF80CC2604513D0DFF808C260450FD000
:102E800022E0C86880461FE0C868001D80461BE03D
:102E9000C8680830804617E0C8680C30804613E0E8
:102EA0008868002802D10420804609E0886801284B
:102EB00003D1082080461C6102E0082080465C6146
:102EC00002E000208046FFE7B5F5807F01D21E00BA
:102ED00000E01E1DB5F5807F02D25FEA8E0702E09A
:102EE000BEF10807BF005FF00F09D6F800C019FA5D
:102EF00007F03CEA000C18FA07F050EA0C0CC6F890
:102F000000C04868C00040F189805F48D0F800C028
:102F10005CF0010CC0F800C0006810F001000090E7
:102F20000098DFF868C1704680085CF820A01EF0A9
:102F30000300C0B2800019FA00F93AEA090A5448BD
:102F4000834202D15FF0000913E05248834202D16C
:102F50005FF001090DE05048834202D15FF00209A1
:102F600007E04E48834202D15FF0030901E05FF0C1
:102F700004091EF00300C0B2800019FA00F952469D
:102F800059EA0202704680084CF820204868C002C6
:102F900007D54348D0F800C055EA0C0CC0F800C073
:102FA00006E03F48D0F800C03CEA050CC0F800C07D
:102FB0004868800207D53B48D0F800C055EA0C0CA1
:102FC000C0F800C006E03748D0F800C03CEA050C65
:102FD000C0F800C04868800307D53348D0F800C067
:102FE00055EA0C0CC0F800C006E02F48D0F800C02D
:102FF0003CEA050CC0F800C04868C00307D52B4860
:10300000D0F800C055EA0C0CC0F800C006E0274814
:10301000D0F800C03CEA050CC0F800C01EF1010E5B
:10302000F9E6BDE8F187020090680B009BB21842F8
:1030300001D0012000E00020C0B270471300DBB2D5
:10304000002B03D00B009BB2036103E00B009BB28B
:103050001B040361704710B4C2680B009BB213409D
:103060000C00A4B2944354EA0344046110BC7047BA
:1030700000001110000012100000211000002210AA
:10308000000031100000321018100240080001400A
:1030900000080140000C01400010014000140140F4
:1030A000080401400C0401400404014000040140F4
:1030B00062F30F2262F31F42401810F0030308D09E
:1030C000C91A1FD3DB0748BF00F8012D28BF20F81D
:1030D000022D130030B414461546103928BF20E9DC
:1030E0003C00FAD8490728BF20E90C0048BF40F847
:1030F000042D890028BF20F8022D48BF00F8012DBB
:1031000030BC7047C91818BF00F8012DCB0728BF85
:1031100000F8012D704730B4002513E050F8042B5F
:10312000D30744BFA9F101039A18091F042942F8E3
:10313000045BFAD213468C0744BF15809B1CC90759
:1031400048BF1D7050F8041B0029E7D130BC704700
:103150000CB430B583B00A4606A902910446002596
:103160000194009502AB01A9084878441E3000F094
:1031700097F9019A157000284EBF04460198041B68
:10318000204603B030BC5DF80CFB00BFE71B00001D
:1031900008B438B585B009AC00250494039500291E
:1031A0000EBF01950190491E0291009504AB01A943
:1031B000074878441A3000F073F9019901B10D7095
:1031C000002858BF039806B030BC5DF808FB00BF6C
:1031D000F710000003490A680348007882180A6063
:1031E000704700BF4C200020440100202DE9F04F23
:1031F00087B005005FF00008002600272A48016814
:1032000051F004010160006810F004000090009883
:1032100001A902A8FEF76BFC059C002C03D1FEF768
:1032200050FC804603E0FEF74CFC5FEA40081F4874
:10323000B8FBF0F9B9F10109DFF874A01D48CAF82C
:10324000000040F2E730CAF80C00CAF804900020F1
:10325000CAF810000020CAF808000020CAF81800B8
:10326000504601F07FFF83465846C0B2002816D171
:10327000504601F0AEFF83465846C0B200280ED13A
:103280001E20FFF7AFFD102D07D2002229001E20BF
:10329000FFF793FD0848056001E00120834658468A
:1032A000C0B207B0BDE8F08F1C10024040420F00D2
:1032B000181E0020000800400400002080B56E4861
:1032C000016851F001010160006810F001000090F8
:1032D00000986A48016851F080510160006810F060
:1032E00080500090009800220F217FF00100FFF72E
:1032F00064FD6349086830F0E06050F000700860D9
:1033000001BD30B585B0040068461021FEF7C2F853
:1033100020685C4988423AD15848016851F00071F0
:103320000160006810F00070049004985248016831
:1033300051F004010160006810F00400049004984A
:103340004FF40060009000200190002002904E4D4C
:1033500069462800FFF758FD4FF480500090022086
:1033600001900320039069462800FFF74DFD0022DD
:1033700005211420FFF721FD1420FFF733FD002263
:1033800005211620FFF719FD1620FFF72BFD05B0CC
:1033900030BD30B585B0040068461021FEF77AF8DC
:1033A00020683A49884265D13348016851F4804128
:1033B0000160016811F4804104910499016851F0A1
:1033C00004010160006810F00400049004984FF4B8
:1033D0000070009002200190032003902A4D69465E
:1033E0002800FFF711FD4FF480600090002001904D
:1033F0000020029069462800FFF706FD244D25486D
:103400002860002068600020A8608020E86000201C
:103410002861002068610020A8610020E861280080
:1034200001F0BCFC002801D0FDF710FFE5636C62E1
:10343000194D1A482860102068600020A86080207C
:10344000E86000202861002068610020A861002059
:10345000E861280001F0A2FC002801D0FDF7F6FE8B
:10346000A5636C62002205212520FFF7A6FC25201C
:10347000FFF7B8FC05B030BD181002401C10024028
:103480000400014000640040000801400038014091
:10349000601E002058000240A41E0020440002408C
:1034A0002DE9F0439FB000BF65A6269CDFF8E88AAF
:1034B0008DF83B40029100240B944FF0FF370446F7
:1034C00091461D460AE019F8011B0298A047002802
:1034D000029000F0A1800B98401C0B9099F800001E
:1034E00050B12528EFD100210022059106920791C5
:1034F000089209910A9203E00B98A5E041F00101BE
:1035000019F8010F2028F9D023280CD02B2804D03B
:103510002D2805D0302809D080E041F00201EFE7E6
:1035200041F00401ECE741F00801E9E741F0100146
:10353000E6E70D920AE00D98404505DA00EB8000C1
:1035400002EB4002303A0D9209F1010999F800208E
:10355000A2F130000A28EED399F800002E2818BFF7
:103560000C9726D119F8010F2A2808D1286828605D
:1035700009F1010950F8042B28600C9219E02D285C
:103580000CBF09F10109002000220C920BE040B9A8
:103590000C9A424505DA02EB820203EB4203303B10
:1035A0000C9309F1010999F80030A3F130020A2ABD
:1035B000EDD3ADF83810304699F8001001F03EFF19
:1035C00008B119F8010B8DF83A009DF83A00682807
:1035D00005D199F8000068280CD1622106E06C281A
:1035E00004BF99F800006C2804D171218DF83A10BD
:1035F00009F1010910A804902A4619F8013B69460F
:10360000204600F061F838B910AA6946204600F05B
:1036100091F900287FF562AF384615E02A2888D155
:103620002A682A6052F8040B2A6000280D9003D5FE
:1036300040420D9041F0040109F101098CE70000BE
:10364000686A6C747A4C00001FB0BDE8F083622891
:1036500020D0682811D06A2803D06C2827D0712880
:1036600025D10868C01D20F007000860D0E90023BC
:1036700008300860194610467047002A0A680A6038
:10368000106803D0121D0A6000B217E0121D0A6014
:1036900080B217E0002A0A680A60106803D0121D81
:1036A0000A6040B20AE0121D0A60C0B20AE0002AB5
:1036B0000A680A60106803D0121D0A60C1177047BB
:1036C000121D0A600021704770B51C460D46B4F10A
:1036D00025002E69114600F01B811C386AD0001F9E
:1036E000022867D9133843D0093863D0801E16D01A
:1036F000401E1ED0401E02285CD9001F19D0401F5A
:1037000000F08380401E33D0401E00F0CD80C01EEC
:1037100000F0DC80801E2BD0C01E29D0FEE068693E
:10372000421C6A610A680A6052F8043B0A6033541A
:10373000FEE095F83A000122FFF789FFC5E9000194
:103740000023994204DA6869411C69612D220DE069
:10375000288F810704D56869411C69612B2205E027
:10376000C00722D56869411C6961202232541CE0DF
:1037700095F83A000022FFF76AFFC5E9000195F8C5
:103780003800010711D5D5E900230020834208BF86
:1037900082420AD044F02000782806D1686930219E
:1037A0003154401C421C6A613454214668693044DB
:1037B000E86087E00868C01D20F007000860D0E9D5
:1037C000002308300860C5E90023D5E90001C80FCF
:1037D00004D06869411C69612D220DE0288F8107A2
:1037E00004D56869411C69612B2205E0C00704D536
:1037F0006869411C69612022325468693044E8607C
:103800002146284600F0C8F992E005F13A025078C6
:1038100020B14FF0FF340FF6502062E0107862289C
:1038200008D0682824D06A2812D06C282ED071289D
:103830000ED02BE00A680A6052F8040B0A6020B927
:103840004FF0FF340FF638204BE0E96A01706FE06B
:103850000A680A6052F8040B0A6020B94FF0FF347E
:103860000FF61C203DE0EA6AD317C0E900235FE0B1
:103870000A680A6052F8040B0A6020B94FF0FF345E
:103880000FF6FC102DE0E96A018051E00A680A6039
:1038900052F8040B0A6020B94FF0FF340FF6E01025
:1038A0001FE0E96A016043E00A680A6052F8040B0D
:1038B0000A60002120F0000221F0FF33C5E9002357
:1038C000EE607821284600F0BBF831E00868086017
:1038D00050F8044B0860EC603CB94FF0FF340FF631
:1038E000B81001F0B7FD201A70BD2E6B002E04D564
:1038F000204601F0CFFD044608E032460021204674
:1039000001F0E4FD002814BF041B3446AC610FE055
:103910006869411C69612522325409E06969481CC3
:10392000686125227254210002D0431C6B6134541B
:10393000002070BD2DE9FC410F46064690467A6B8B
:103940007869396ABC6A121AB869521A796A121A05
:10395000F869521A121A97F83800141B41070FD44D
:103960002020002C8DF800000ADD254601236A4640
:103970003946304600F060FC00285DD16D1EF5D15F
:103980007B6942463946304600F056FC002853D148
:1039900030208DF800003D6A002D09DD01236A46C4
:1039A0003946304600F048FC002845D16D1EF5D15F
:1039B000BB69FA683946304600F03EFC00283BD12E
:1039C00030208DF800007D6A002D08DD01236A4655
:1039D0003946304600F030FC70BB6D1EF6D1F868F9
:1039E000B969FB6942183946304600F025FC18BB1E
:1039F00030208DF80000BD6A002D08DD01236A46E5
:103A00003946304600F018FCB0B96D1EF6D197F873
:103A1000380041070DD52020002C8DF8000008DD6E
:103A200001236A463946304600F006FC20B9641E80
:103A3000F6D10020BDE8F6814FF0FF30BDE8F681F9
:103A40002DE9FC4707468C463E69BCF16F0F08BF65
:103A5000082405D04CF02000782814BF0A24102434
:103A60003C25D7E90023BCF1640F18BFBCF1690FF6
:103A70009046994606D100218B4203DAD8F100081E
:103A800069EB49094FF0000AD14508BFD0451FD165
:103A9000386BE8B9082C4BD197F83800010747D5A7
:103AA00030203B2586F83B0042E000280ED597F8F1
:103AB000380000F01400102808D17B6B7969386A4F
:103AC0005B1A1B1A9A1A002AC8BF3A62BDE8F3872C
:103AD0008DF800C0404649462246E31701F022FD1A
:103AE0003032D0B26D1E3A28019504DB9DF80000FB
:103AF000A0F151018A187255404649462246E31703
:103B000001F010FD89468046D14508BFD04503D05D
:103B1000F86871198842DDD3082C09D197F838006C
:103B2000010705D5705D302802D06D1E302070551C
:103B3000C5F13C02BA617119F960386B8242B4DA9E
:103B4000821A3A624FF6EF70398F01403987BDE82B
:103B5000F3872DE9D04306460F4614464FF0000880
:103B6000DFF8389412E0E00707D542464B4630466E
:103B7000394601F0EFFD06460F46404649464246AB
:103B80004B4601F0E7FD641080468946002CEAD1DF
:103B900030463946BDE8D0832DE9F34F054641F064
:103BA00020048DB0D5E90089612C02AE09D0286BC4
:103BB000002848BF062003D408BF672C01D101208C
:103BC0002863D5E9002358004015401C0ED1190385
:103BD0000CD00320A8619DF8381061391A2902D24F
:103BE0000FF2D06111E00FF2D0610EE059004915DB
:103BF000491C0FD118030DD10320A8619DF838107E
:103C000061391A2914D30FF2B861E868032201F070
:103C100073FED3E1194621F00043B3F5801F10462F
:103C20000DD20027BB4208BFBA42019703D111E071
:103C30000FF28861E9E701AA01F0B2FE0AE0DFF8BD
:103C4000607307EB1352DFF85C3301921940DFF821
:103C500058331943C5E90001612C0ED1E8683021C1
:103C60000170821CEA609DF8381061290CBF782130
:103C7000582141706869801C6861D5E900AB2BF060
:103C8000004300202AF00002834204BF8242002346
:103C900000F05B81612C40F0AA80286B002847BFB0
:103CA00021210091401C0090009F7F1C4046494606
:103CB0000022002301F0ACFED94601998DF80820BE
:103CC00038BF89F00049091F002FD04601910DF13E
:103CD000090040F34981B349DFF8D0B20C910646A0
:103CE000404649460022002301F0AAFE80F03B81B5
:103CF0004800400D00F11C0211D0002A0FDD40F2F7
:103D0000FF70824205DB09F0004040EA0B01002011
:103D100013E00C98014041EA025140460DE029F0C1
:103D20000043002028F00002834208BF82420FBFF8
:103D300040461C22404601F09BFE8046894601F029
:103D400035FFFF1F002F044609DD01F04DFF02463D
:103D50000B464046494601F059FF80468946F01D12
:103D6000072104E004F00F0200F8012D2411002CBB
:103D700001DD491EF6D5491E5CBF002200F8012D69
:103D8000F9D5ECE00020194602AA0A4400E05B1EC7
:103D900012F80149491E8442F9D00F2804D10DF1CF
:103DA0000900425C521C4254002904D50198001DB0
:103DB00002AE5B1C0190591E12D49DF83800721897
:103DC000A0F13A07147804F130085FFA88F43A2C2D
:103DD000A8BFB844491E02F80189F3D58DF8380010
:103DE000286B002840F1B080591E2963ACE04046A2
:103DF00049460022002301F00BFE019938BF89F0EB
:103E0000004947F297504143694A91FBF2F201920F
:103E1000D2F1070204DD40464946FFF79AFE0AE068
:103E2000524200206349FFF794FE02460B4640468B
:103E3000494601F05DFF8046662C286BDFF878B1BB
:103E400006BF019F0A3706273F18142FC8BF142743
:103E500030208DF8080089460DF1090000E0304659
:103E6000002F34DD06464046494602F065F801461B
:103E70000A4606F1080304200A26B2FBF6F606EB12
:103E8000860EA2EB4E02303203F8012C0A22B6FB5A
:103E9000F2F202EB820EA6EB4E063036401E03F81D
:103EA000026DE9D1083F002F03F10806D7DD08466F
:103EB00002F056F802460B464046494601F0A6FE7F
:103EC00000225B4601F046FC80468946CBE70DF1B7
:103ED0000901401A0DF1090604E00199491E401E2E
:103EE0000191761C31783029F7D0662C02D10199E6
:103EF000491C03E0652C0CBF012100212B6BCB1862
:103F00009842B8BF431E002B1ED4834204DAF05CF3
:103F10003528A8BF392000DA30201946721E02EB7E
:103F2000010800E05B1E18F80199491E8145F9D08F
:103F3000392802D1705C401C7054002904D50198C6
:103F4000401C16465B1C0190019800B200901BB209
:103F50009DF838103246284600F034F82EE0C61D91
:103F6000002F3FF7BDAE30460DF10901401A009910
:103F700003468842C8BF0B46002B0DF109063FF5EA
:103F80002FAF8342BFF6FEAE0DF10900C15C0729D9
:103F90007FF7F8AE0F20F6E6CBCCCC0C0000244027
:103FA00002FCFFFFFFFF0F800000E03F0000F07FFA
:103FB000A08601000000F03F84D797410FB0BDE814
:103FC000F08F00002DE9F84783B006468A46174671
:103FD000984601F0D3FFB8F1000F406A356B90F8B6
:103FE000009002DC4FF00108B6A74AF02000BDF9AE
:103FF0003040662808BF641C15D0672840F08480D4
:1040000014F1040FC0F28680AC4280F2838096F8EF
:104010003800641C010702D4A845B8BF454620B249
:104020002D1A48BF00250FFA84FAF068B169BAF179
:10403000000F25DC4A1C30234354002D03DC96F886
:104040003800010703D5F06800F80290521C15EB08
:104050000A0FB8BF6C4220B2441941424445B8BF70
:10406000A046B26171620FFA88F5F561F068B36934
:104070002A463946184401F03FFC641BB462C4E090
:1040800022B29045084417DA4246394601F034FC22
:10409000B0694044B061AAEB0801002D716203DCF5
:1040A00096F838100A0705D5F16801F80090F06914
:1040B000401CF061B562A8E0394601F01DFCB06912
:1040C000002D5044A8EB040803DC96F838100A07CA
:1040D00003D5F16801F80090401CB0610FFA88F038
:1040E0008542F368B069B8BFA8460FFA88F207EBBB
:1040F0000A01184401F000FCB1690FFA88F001448C
:10410000B161281A706280E0BAF1610F14D14FF0EA
:10411000700A16E0A84504DA96F838100A0758BF66
:1041200045466D1E48BF0025BAF1670F14BF4FF01A
:10413000450A4FF0650A04E0BAF1410F08BF4FF09D
:10414000500AB169F368481CB061002D17F8012BC3
:104150005A5403DC96F838100A071BD5F168431C43
:10416000B36101F80090002D14DDA8F101080FFAE9
:1041700088F039468542F768B8BFA8460FFA88F23A
:10418000F81801F0B9FBB0690FFA88F108446D1A0C
:10419000B0617562F068B1690844002C80F800A035
:1041A00003D42B224270811C03E02D214170644214
:1041B000811C00206A460AE023460A2493FBF4F49B
:1041C00004EB8405A3EB450302F8013B401C24B239
:1041D000002CF1DC012806DC4AF02002652A04BF2D
:1041E000302201F8012B48B9302001F8010B07E01B
:1041F000401E1DF80030303301F8013B0028F7DC89
:10420000F268B0691044091AF16196F8380000F0BC
:10421000140010280DD17269B169706A8A18F169A9
:104220008218B06A8A188218706B8242BCBF821AE8
:10423000326204B0BDE8F087F8B505460E46174671
:104240001C46002074B117F8011BB068A847B06085
:1042500030B1F06A401CF0620020641EF3D1F2BD60
:104260004FF0FF30F2BD00007072696E74665F73CC
:104270003A20256E20646973616C6C6F7765640009
:104280007072696E74663A2062616420256E2061E6
:104290007267756D656E74007072696E74665F73B7
:1042A0003A2062616420257320617267756D656EC6
:1042B000740000006E616E004E414E00696E660033
:1042C000494E460030008268521C8260426832B11A
:1042D0000268531C036011704168491E41607047B9
:1042E0002DE9F04F85B006000F0090469946DDF8A5
:1042F00038A00F9C109D002C07D1502080F311880E
:10430000BFF34F8FBFF36F8FFEE7002D07D1502013
:1043100080F31188BFF34F8FBFF36F8FFEE75C20F0
:10432000009000985C2807D0502080F31188BFF3DC
:104330004F8FBFF36F8FFEE7002D19D0002C17D0E1
:10434000AB46CBF8304002208BF859000020039098
:10435000CDF808B004A80190CDF800A04B46424625
:104360003900300000F047F8584600F0B4F801E09A
:1043700000200490049805B0BDE8F08F2DE9F84FB7
:1043800084B006000F0090469946DDF838A0DDF8AD
:104390003CB0404680B2800001F0F4FD0500002DE5
:1043A0000BD05C2001F0EEFD0400002C01D0256351
:1043B00004E0280001F076FE00E00024002C15D077
:1043C000002084F85900002003900294CDF804B036
:1043D000CDF800A04B46424692B23900300000F0C2
:1043E0000AF8200000F077F8012001E05FF0FF30CC
:1043F00005B0BDE8F08F2DE9F14F82B00D00160039
:104400001F00DDF830800D9CDDF83890B000009082
:104410005FF0A50BD9F830A05A4600995046FEF738
:1044200047FED9F8300000EB8600B0F1040A5FEADD
:10443000DA0A5FEACA0A1AF00700002807D05020FB
:1044400080F31188BFF34F8FBFF36F8FFEE75FF0EC
:10445000000BBBF1100F0CD215F80B0009EB0B0190
:1044600081F8340015F80B00002802D01BF1010B75
:10447000EFE7002089F84300B8F1380F01D3372067
:104480008046C9F82C80C9F84C800020C9F850003B
:1044900019F1040001F0BFFE19F1180001F0BBFE94
:1044A000C9F81090D8F13800C9F81800C9F824905C
:1044B0000020C9F85400002089F858003A000299F9
:1044C000504601F0E7FEC9F80000002C01D0C4F806
:1044D0000090BDE8F78F38B5040001F047FFDFF822
:1044E00028140868401C0860DFF820542868002859
:1044F00006D12C60086801280DD100F0E5FA0AE029
:10450000DFF80C040068002805D1E06A2968C96A50
:10451000884200D32C60DFF83C040168491C01602C
:1045200000686064DFF830040168E26A914201D2F9
:10453000E16A0160211DDFF82424E36A142043436B
:1045400002EB030001F06AFE01F02AFFDFF8C0036E
:10455000006800280DD02868C06AE16A884208D245
:104560005FF08050DFF898140860BFF34F8FBFF3FF
:104570006F8F31BD38B505000024002D15D0DFF850
:1045800064040068002807D0502080F31188BFF32E
:104590004F8FBFF36F8FFEE700F060F80021280017
:1045A00000F07EFB00F060F80400002C08D15FF002
:1045B0008050DFF84C140860BFF34F8FBFF36F8F4C
:1045C00031BD10B586B0002004900020039005AAEC
:1045D00003A904A8FCF746FFDFF8A0460498029060
:1045E00003980190002000900023059ADFF89016B0
:1045F0000FF2AD40FFF774FE20602068002801D064
:10460000012400E00024012C02D101F045FF040048
:10461000012C16D1502080F31188BFF34F8FBFF3C8
:104620006F8F5FF0FF30DFF85C1608600120DFF865
:10463000E01208600020DFF8B013086001F04FFEC0
:104640000AE014F1010F07D1502080F31188BFF365
:104650004F8FBFF36F8FFEE706B010BDDFF8840306
:104660000168491C01607047F8B500250026DFF895
:1046700074432068002807D1502080F31188BFF3CD
:104680004F8FBFF36F8FFEE701F070FE2068401E72
:1046900020602068002857D1DFF86C0200680028ED
:1046A00052D0DFF8D4150868002827D0C868C06841
:1046B000050015F1180001F0D8FD281D01F0D5FD09
:1046C000DFF894020168EA6A914201D2E96A016066
:1046D000291DDFF88822EB6A1420434302EB030014
:1046E00001F09CFDE86ADFF824120968C96A884273
:1046F000D7D30120DFF894150860D2E7002D01D050
:1047000000F050FADFF880753C68002C0CD000F007
:1047100023F8002803D00120DFF870150860641E1C
:10472000002CF4D100203860DFF860050068002814
:104730000AD0012006005FF08050DFF8C412086044
:10474000BFF34F8FBFF36F8F01F02AFE3000F2BD31
:10475000DFF89402006870472DE9F0410027A14876
:10476000006800286ED1DFF880020468641C0460D1
:10477000002C1CD1DFF8241308680068002807D03B
:10478000502080F31188BFF34F8FBFF36F8FFEE788
:10479000D1F80080DFF82C0302680A60C0F80080BE
:1047A000DFF8EC040168491C016000F0FBF9DFF858
:1047B000D484D8F80000844238D3DFF8E0120868C7
:1047C0000068002804D15FF0FF30C8F800002DE039
:1047D0000868C068C068050068680600B44202D274
:1047E000C8F8006022E0281D01F03FFDA86A0028FB
:1047F00003D015F1180001F038FD57480168EA6A46
:10480000914201D2E96A0160291D544AEB6A1420E1
:10481000434302EB030001F001FDE86A3B490968EC
:10482000C96A8842C9D301200700C6E73748006833
:104830004A49C26A142042438858022807D30120FB
:10484000070004E0DFF840040168491C0160DFF85C
:104850003C040068002801D0012007003800BDE8B2
:10486000F08110B45F480068002804D00120DFF810
:104870001C1408602CE00020DFF810140860364A91
:1048800010681423354C03FB00F1615800290BD14B
:10489000002807D1502181F31188BFF34F8FBFF358
:1048A0006F8FFEE7401EECE703FB00F304EB030110
:1048B0004B685B684B604B6811F10804A34202D15E
:1048C0004B685B684B604968C968104B19601060A1
:1048D00010BC704738B504000D00002C07D15020E3
:1048E00080F31188BFF34F8FBFF36F8FFEE7DFF8C0
:1048F0001C04006810F11801200001F09BFC01214C
:10490000280000F0CDF931BD6020002050200020AB
:104910006C20002070B505000E001400002D07D19A
:10492000502080F31188BFF34F8FBFF36F8FFEE7E6
:10493000DFF8D803006810F11801280001F06EFCC0
:10494000002C02D05FF0FF3006002100300000F0A4
:10495000A7F970BD7C20002068200020480D0020B1
:1049600038B50500E868C468002C07D1502080F3F2
:104970001188BFF34F8FBFF36F8FFEE714F118005C
:1049800001F073FC17480068002815D1201D01F0C4
:104990006CFCDFF804030168E26A914201D2E16A2B
:1049A0000160211DDFF8F422E36A1420434302EB87
:1049B000030001F033FC05E014F11801DFF8B80240
:1049C00001F02CFCDFF844030068C06AE16A884209
:1049D00005D201200121DFF8BC22116000E0002097
:1049E00032BD00008820002064200020DFF8A012E3
:1049F00009680160DFF81C13096841607047000016
:104A000004ED00E02DE9F04104000D00002C07D179
:104A1000502080F31188BFF34F8FBFF36F8FFEE7F5
:104A2000002D07D1502080F31188BFF34F8FBFF3C3
:104A30006F8FFEE701F09AFCDFF8D802066867681E
:104A4000F71B286810F1010F02D15FF000081BE08E
:104A5000DFF83C0200682168884205D06068864221
:104A600002D35FF001080FE02868874208D2286867
:104A7000C01B28602000FFF7B9FF5FF0000803E0CB
:104A8000002028605FF0010801F08AFC4046BDE884
:104A9000F0810120DFF8FC110860704754200020ED
:104AA00010B5040000F03BF8DFF8F00100680228C0
:104AB000F8D35FF0805029490860BFF34F8FBFF3F0
:104AC0006F8FEFE75820002070B50024382C09D2F2
:104AD000DFF8C801142101FB04F1084401F08CFB4C
:104AE000641CF3E7DFF83052280001F085FBDFF8A3
:104AF0002C62300001F080FBDFF87C0101F07CFBD0
:104B0000DFF81C0201F078FBDFF8180201F074FBFB
:104B1000DFF814020560DFF81402066070BD38B5D6
:104B2000DFF80C522868002817D001F01FFCDFF8CE
:104B3000F001C068C0680400201D01F096FBDFF89A
:104B4000F4010168491E01602868401E286001F0D8
:104B500027FC200000F004F8E2E731BD04ED00E09E
:104B600010B5040094F85900002806D1206B01F01C
:104B700099FA200001F096FA13E094F85900012800
:104B800003D1200001F08EFA0BE094F859000228BE
:104B900007D0502080F31188BFF34F8FBFF36F8F82
:104BA000FEE710BDDFF8802110680068002804D1FE
:104BB0005FF0FF30334A106006E01068C068C068DC
:104BC000010048682F4A10607047DFF86C010068E8
:104BD000002801D1012007E0DFF834010068002837
:104BE00001D1022000E00020704770B504002500CC
:104BF0000026002C3ED0DFF814010068854207D063
:104C0000502080F31188BFF34F8FBFF36F8FFEE703
:104C1000286D002807D1502080F31188BFF34F8FF3
:104C2000BFF36F8FFEE7286D401E2865E86AE96CC8
:104C300088421FD0286D00281CD1281D01F015FBCB
:104C4000E86CE862E86AD0F13800A861DFF8480053
:104C50000168EA6A914201D2E96A0160291DDFF820
:104C60003C20EB6A1420434302EB030001F0D6FA28
:104C700001200600300070BDAC1F00208420002001
:104C8000187D000880200020702000207420002063
:104C9000782000207420002068200020480D00208B
:104CA0002DE9F04105000C001A480768DFF85C8028
:104CB000D8F80000001D01F0D8FA15F1010F08D155
:104CC000002C06D0D8F80000011D164801F0A6FA05
:104CD0001AE0E8190600D8F800004660BE4207D284
:104CE000D8F80000011D1148006801F0A3FA0BE09C
:104CF000D8F80000011D0C48006801F09BFA0F482D
:104D000001688E4200D20660BDE8F081502000208C
:104D10008820002064200020841F0020981F00208D
:104D2000C01F0020D41F0020542000205820002045
:104D30005C200020602000206C20002080200020CB
:104D400000B500BF130096469446103928BFA0E86E
:104D50000C50FAD85FEA417C28BF0CC048BF40F82D
:104D6000042BC90728BF20F8022B48BF00F8012BED
:104D700000BD0268531C0360117070470148006851
:104D8000704700BF4C200020704770477047704745
:104D900070477047704770477047704710B4010004
:104DA0000022002901D101202BE00B68DFF85C0311
:104DB000C3181420B3FBF0F080000864DFF8500340
:104DC000C863022081F82100086803686FF30D139F
:104DD0004C6888680443C868044308690443486908
:104DE000044388690443C869044323430868036093
:104DF00000208863012081F82100002081F8200034
:104E0000002010BC70472DE9F04104000D00160091
:104E10001F005FF0000894F82000012801D1022053
:104E20003BE0012084F8200094F8210001282DD1D6
:104E3000022084F821000020A06320680068400858
:104E40004000216808603B0032002900200000F08B
:104E50006FF9E06A002806D02068006850F00E0064
:104E6000216808600BE02068006830F004002168C9
:104E700008602068006850F00A0021680860206817
:104E8000006850F001002168086004E0002084F808
:104E90002000022080464046C0B2BDE8F0810100FB
:104EA000002291F82100022806D004208863002007
:104EB00081F82000012018E00868006830F00E003A
:104EC0000B68186008680068400840000B681860AC
:104ED0000123086C8340C86B4360012081F82100E6
:104EE000002081F820001000C0B2704738B50400DF
:104EF000002594F82100022804D00420A06301209A
:104F000005004AE02068006830F00E002168086063
:104F10002068006840084000216808602068DFF8C9
:104F2000F411884201D1012028E02068DFF8E8115F
:104F3000884201D1102021E02068DFF8E01188428A
:104F400002D14FF4807019E02068DFF8D411884254
:104F500002D14FF4805011E02068DFF8C811884278
:104F600002D15FF4803009E02068DFF8BC1188428C
:104F700002D15FF4801001E05FF08070DFF8AC11C7
:104F80000860012084F82100002084F82000606B74
:104F9000002802D02000616B88472800C0B232BDD3
:104FA00070B50400E06B0568206806680421206C79
:104FB00081400D423ED070073CD5206800688006D5
:104FC00005D42068006830F004002168086020687B
:104FD0005049884201D1042023E020684E4988428C
:104FE00001D140201DE020684C49884202D14FF495
:104FF000806016E020684A49884202D14FF4804020
:105000000FE020684749884202D15FF4802008E021
:1050100020684549884202D15FF4800001E05FF0DA
:10502000806042490860E06A00286DD02000E16A93
:10503000884769E00221206C81400D4244D0B007CE
:1050400042D520680068800608D42068006830F0E7
:105050000A0021680860012084F8210020682D4999
:10506000884201D1022023E020682B49884201D1E7
:1050700020201DE020682949884202D14FF40070A9
:1050800016E020682649884202D14FF400500FE014
:1050900020682449884202D15FF4003008E020688B
:1050A0002149884202D15FF4001001E05FF00070F6
:1050B0001E490860002084F82000A06A002823D040
:1050C0002000A16A88471FE00821206C81400D4222
:1050D0001AD0300718D52068006830F00E0021681B
:1050E00008600121206C8140E06B41600120A063D9
:1050F000012084F82100002084F82000206B002883
:1051000002D02000216B884770BD0000F8FFFDBF72
:1051100000000240080002401C0002403000024033
:1051200044000240580002406C000240040002406B
:1051300030B40125046CA540C46B656004686360ED
:105140004468102C04D10468A2600468E16003E0A4
:105150000468A1600468E26030BC70477047704723
:105160007047000010B50400002C01D101202FE091
:1051700094F83D00002805D1002084F83C00200070
:1051800000F05AF9022084F83D00211D206800F04B
:105190001AF9012084F84600012084F83E0001201D
:1051A00084F83F00012084F84000012084F8410089
:1051B000012084F84200012084F84300012084F893
:1051C0004400012084F84500012084F83D000020BF
:1051D00010BD010091F83D00012801D0012030E010
:1051E000022081F83D000868C06850F001000B689B
:1051F000D8600868DFF84C3098420DD00868B0F1EC
:10520000804F09D00868DFF84030984204D0086821
:10521000DFF8383098420DD10868806810F0070038
:105220000200062A0CD00868006850F001000B68E4
:10523000186005E00868006850F001000B6818600D
:1052400000207047002C014000040040000800408E
:1052500010B504002068006980071AD52068C0686E
:10526000800716D57FF002002168086101202077B1
:105270002068806910F0030F03D0200001F052FB7A
:1052800005E0200001F04FFB200001F04DFB002065
:1052900020772068006940071AD52068C068400759
:1052A00016D57FF00400216808610220207720686D
:1052B000806910F4407F03D0200001F033FB05E04B
:1052C000200001F030FB200001F02EFB00202077B1
:1052D0002068006900071AD52068C068000716D545
:1052E0007FF0080021680861042020772068C069E9
:1052F00010F0030F03D0200001F014FB05E02000A4
:1053000001F011FB200001F00FFB00202077206846
:105310000069C0061AD52068C068C00616D57FF09F
:10532000100021680861082020772068C06910F407
:10533000407F03D0200001F0F5FA05E0200001F0E5
:10534000F2FA200001F0F0FA0020207720680069CE
:10535000C0070AD52068C068C00706D57FF00100E5
:10536000216808612000FBF705FF2068006900063E
:105370000AD52068C068000606D57FF08000216845
:105380000861200001F0D1FA2068006940060AD5C2
:105390002068C068400606D57FF04000216808619B
:1053A000200001F0C3FA2068006980060AD5206851
:1053B000C068800606D57FF02000216808612000C3
:1053C00001F0B5FA10BD10B40368184CA04208D023
:1053D000B0F1804F05D0164A904202D0154A904253
:1053E00003D133F070034A681343A04208D0B0F1F0
:1053F000804F05D00E4A904202D00E4A904203D10F
:1054000033F44073CA68134333F080034A6913438B
:1054100003608A68C2620A688262A04201D10A6996
:1054200002630122426110BC70470000002C014061
:105430000004004000080040704700000278C9B234
:105440008A421AB11CBF10F8012FF9E718BF0020DB
:105450007047000080B500B906A005490B681BB174
:1054600022220021984701E001F062FA222002BDC9
:10547000A0200020636F6E73747261696E7420687F
:10548000616E646C65723A20626164206D6573734D
:105490006167650000F10103810704D010F8011B6A
:1054A000820781B1FAD10268A2F10131914311F072
:1054B000803104BF50F8042FF6E709BAB1FA81F140
:1054C00000EBD100401CC01A70470000C9B283072E
:1054D00006D0521E22D310F8013B9942F7D11FE0AB
:1054E000083A13D302F1040241EA012141EA0141E1
:1054F00050F8043B121F21BF4B40A3F1013C2CEAA2
:10550000030C1CF0803FF3D0C9B2001F083210F822
:10551000013B521E28BF91EA030FF8D818BF0120A3
:10552000401E7047BBBBE1B1B2F5803F80F07E808A
:10553000022A1ED98C46B1FBF2F102FB11C31B04F7
:1055400043EA1043B3FBF2FC02FB1C3380B240EA97
:105550000343B3FBF2F002FB103240EA0C4000239D
:105560007047022A05D98446B0FBF2F002FB10C254
:1055700070474AB105D100F0010249085FEA3000E6
:10558000704700220023704701F0D6B90B000200DB
:10559000002100207047904271EB030CF6D3B3F565
:1055A000803F2FD2F0B5B3FA83F7B1FA81F4A7F1B7
:1055B0000F0E3D1B5340CEF1200602FA0EF2F341CE
:1055C0005340B5F10F0746D80F3C2C444140C4F17D
:1055D0002006A040F1414140B1FBF3F603FB161158
:1055E000A2FB0645001BA94102D2761E8018594134
:1055F00080EA010221FA0EF362FA0EF200215A400B
:105600003046F0BD30B4B1FBF3FC03FB1C11A2FB30
:105610000C45001BA94103D2ACF1010C8018594183
:1056200030BC02460B46604600217047B2F1807FD5
:1056300065D3F0B5B2FA82F7B1FA81F4C7F10F067B
:105640003D1B22FA06F307F1110EF24120355A40B4
:10565000B5F10F07B8D94140C4F12006A040F1418F
:105660004140B1FBF3FC03FB1C11A2FB0C45001BEA
:10567000A94103D2BCF1010C801859410F2F12D35C
:105680000F3FC90341EA5041B1FBF3F603FB16118A
:10569000A2FB0645D4EBC030A94102D2761E801889
:1056A000594146EACC3C07B34140C7F12006B84017
:1056B000F1414140B1FBF3F603FB1611A2FB064595
:1056C000001BA94102D2761E8018594180EA0102CE
:1056D00021FA0EF3C7F1200462FA0EF20CFA07F079
:1056E0005A402CFA04F13043F0BD80EA010221FA5D
:1056F0000EF3002162FA0EF260465A40F0BD8C466D
:10570000B1FBF2F102FB11C31B0243EA1063B3FBCE
:10571000F2FC02FB1C331B024CEA002043EA10633C
:10572000B3FBF2FC02FB1C331B024CEA002043EAF1
:105730001063B3FBF2FC02FB1C331B024CEA00209B
:1057400043EA1063B3FBF2FC02FB1C324CEA00207C
:1057500000237047B0B581EA030C0CF0004C40F216
:10576000FF7515EA11541DBF15EA1357AC42AF423D
:1057700039E0E41923EA455343F48013C90241F0A8
:10578000004141EA505EC7021100A7FB0202002857
:105790004FF00000EEFB01204FF00001E3FB07217A
:1057A00018BF42F00102401800214941E3FB0E01FD
:1057B000A4F580640F0302D252004041494154F1E4
:1057C00001046CDD470872F1004250F1000051EB1A
:1057D0000451A1F580115CBF41EA0C01B0BD4CEA57
:1057E00005510020B0BD05EA1357AC4214BFAF42CB
:1057F00041E050EA410E1CBF52EA430E02E061460E
:105800000020B0BD24423C441BD15FEA070EF6D015
:10581000090302BF01460020AEF1140EB1FA81F770
:10582000AEEB070401FA07FE0C37C7F1200100FABE
:1058300007F7C8404EEA000E23EA455343F48013AD
:10584000A2E733F00043B3FA83F704BFB2FA82FE53
:1058500077440B3FE41BB7F1200E2FBF02FA0EF383
:10586000BB40C7F1200E22FA0EFE38BF43EA0E03FA
:10587000BA40641C82E750EA410E14BF52EA430E5C
:105880006FF000014FF4001717EB430F8ABF194662
:1058900017EB410FB5E74CEA05510020B0BDD4F13C
:1058A0000104B4F120070FDAC4F12007520828BF21
:1058B00042F0010210FA07F501FA07F7E1BF2A43A7
:1058C000E0403843E1400FE0352C98DCC7F120047C
:1058D00052EA400220FA07F218BF42F0010231FA00
:1058E00007F0A1400A43002172F1004250F100008C
:1058F00051EB0C01B0BD000062B38B0708D0521E03
:1059000011F8013B00F8013B00F024808B07F6D131
:10591000830740F0208000BF103A07D330B4B1E8CD
:105920003810103AA0E83810F9D230BC530724BF21
:10593000B1E80810A0E8081044BF51F8043B40F853
:10594000043BD20724BF31F8022B20F8022B44BFBE
:105950000B7803707047121F17D35B0009D151F801
:10596000043B20F8023B1B0C121F20F8023BF6D22E
:105970000BE051F8043B00F8013B1B0A20F8023B06
:105980001B0C121F00F8013BF3D238BF121D521E30
:1059900024BF11F8013B00F8013BF8D87047000024
:1059A00010B5144600F002F8226010BDC1F30A538E
:1059B00043B14A0012F5001F28D2A3F2FE32A1EB38
:1059C0000251704750EA410C20D001F0004C31EAFE
:1059D0000C01B1FA81F204BFB0FA80F3D2180B3A8D
:1059E000B2F120032CBF00FA03F1914041EA0C010F
:1059F0003EBFC2F1200C20FA0CF3194390405242F2
:105A000040F2FD33D21A01EB035170470022704778
:105A10004FF4001C1CEB410F94BF1CEB430F09E03B
:105A200041EA030C50EA4C0C52EA0C0C03D29942A6
:105A300008BF9042704714BF8B42824270470000FB
:105A40004FF4001C1CEB410F94BF1CEB430F09E00B
:105A500041EA030C50EA4C0C52EA0C0C03D28B4284
:105A600008BF8242704714BF9942904270470000BD
:105A7000124254D440F2FF7C1CEA11530FD063450C
:105A800031D09B1863453CBF01EB0251704701F0D8
:105A9000004141EA0C510020AFF30080704750EA0A
:105AA000410320D001F0004C91EA0C011CD0B1FA66
:105AB00081F30B3B9A420DD9D21A994051EA0C015D
:105AC000C3F1200C20FA0CFC61449840531C40F2B6
:105AD000FF7CD7E7914041EA0C01C2F1200C20FA8B
